:100000000C945D000C9485000C9485000C94850084
:100010000C9485000C9485000C9485000C9485004C
:100020000C9485000C9485000C9485000C94D904E4
:100030000C9485000C9485000C9485000C9485002C
:100040000C949A050C9485000C9485000C94850002
:100050000C9485000C9485000C9485000C9485000C
:100060000C94B2030C94850000000007000201000C
:100070000003040600000000000000000000000073
:10008000250028002B0000000000240027002A0083
:10009000040404040404040402020202020203032E
:1000A0000303030301020408102040800102040836
:1000B0001020010204081020330611241FBECFEFC8
:1000C000D8E0DEBFCDBF11E0A0E0B1E0E0E4FFE0AA
:1000D00002C005900D92A031B107D9F722E0A0E14E
:1000E000B1E001C01D92AC33B207E1F710E0CDE5FD
:1000F000D0E004C02197FE010E949807CC35D107BB
:10010000C9F70E9437060C9426070C94000090E073
:10011000FC01EC55FF4F2491FC01E057FF4F849107
:10012000882399F090E0880F991FFC01EA57FF4F50
:10013000A591B491FC01E458FF4F859194918FB73C
:10014000F894EC91E22BEC938FBF0895613208F0A4
:1001500045C090911B029111FCCF22E020931B021D
:1001600021E020931A022FEF209319021092180217
:1001700060931702ECE1F2E0A7EFB1E020E0621734
:1001800021F031913D932F5FFACF1092F60120912B
:10019000F601880F822B8093F6018091F501813062
:1001A00041F41092F5018091F6018093BB0085EC3B
:1001B00001C085EE8093BC0080911B028230E1F388
:1001C000809119028F3F79F080911902803241F0BD
:1001D00080911902803331F094E005C091E003C0B2
:1001E00092E001C093E0892F08956091F40180911D
:1001F000F3010E94A6001092F2011092F4011092F5
:10020000F1010895E091E501F091E6010190F0819E
:10021000E02D60E085EE91E009946132F0F5909177
:100220001B029111FCCF91E090931B0290931A0254
:100230002FEF2093190210921802260F2093170215
:100240009093F6019091F601880F892B8093F60127
:100250008091F501813041F41092F5018091F60111
:100260008093BB0085EC01C085EE8093BC0080913B
:100270001B028130E1F380911802861710F460911F
:100280001802E7EFF1E0A7E8B1E080E0861721F07F
:1002900091919D938F5FFACF089580E00895CF925A
:1002A000DF92EF92FF92DC01A03282E0B8070CF0FF
:1002B0003EC0B7FD06C0A53BB1052CF0A4EBB0E0F5
:1002C00002C0A0E0B0E08091850128E830E069013B
:1002D000C81AD10887FDD394CC0CDD1CCC0CDD1CD6
:1002E0000D2C000CEE08FF088091860128E532E015
:1002F000281B310987FD3395220F331F220F331F2F
:10030000A901330F660B770B9A01AB012C193D093C
:100310004E095F090E94530724EB30E040E050E0B3
:100320000E942907C20ED31EE41EF51ED60190912D
:1003300084019C3098F58091850148E850E0481B85
:10034000510987FD5395440F551F440F551FA4179E
:10035000B5078CF08091860128E532E0281B310931
:1003600087FD3395220F331F220F331FAD012A174C
:100370003B070CF4A9012FB7F894892F90E0FC01FA
:10038000EE0FFF1F8E0F9F1FFC01E05AFE4F4250E1
:100390005109440F551F528341832FBFFF90EF90A7
:1003A000DF90CF90089585ED8093BC008091BC00D4
:1003B00084FDFCCF10921B020895613298F42091C5
:1003C0001B02243089F460933D01282FADE1B1E098
:1003D000FC018E2F821B861718F481918D93F9CF23
:1003E00080E0089581E0089582E008950895CF9215
:1003F000DF92EF92FF920F931F93CF93DF936C01E5
:10040000EB017B01E40EF51E00E010E0CE15DF05E8
:1004100061F06991D601ED91FC910190F081E02DA0
:10042000C6010995080F191FF1CFC801DF91CF91BF
:100430001F910F91FF90EF90DF90CF90089590E083
:10044000FC01E859FF4F2491FC01EC55FF4F34911A
:10045000FC01E057FF4FE491EE2309F43CC0222356
:1004600039F1233091F038F42130A9F0223001F530
:1004700084B58F7D12C0263091F02730A1F0243052
:10048000B9F4809180008F7D03C0809180008F77C8
:10049000809380000DC084B58F7784BD09C08091A2
:1004A000B0008F7703C08091B0008F7D8093B00043
:1004B000F0E0EE0FFF1FE458FF4FA591B4919FB7F6
:1004C000F894611104C08C913095382302C0EC91EE
:1004D0003E2B3C939FBF089510921B0281E08093B6
:1004E0001A021092F50161E082E10E941F0261E0B0
:1004F00083E10E941F02E9EBF0E080818E7F808320
:1005000080818D7F808388E48093B80085E4809328
:10051000BC0008950895E0911C0180911B01E8172B
:1005200030F4F0E0E957FE4F808190E008958FEFBE
:100530009FEF089590911C0180911B01981750F432
:10054000E92FF0E0E957FE4F208130E09F5F909364
:100550001C0102C02FEF3FEFC901089580911B01DC
:1005600090E020911C01821B91090895CF92DF92A7
:10057000EF92FF920F931F93CF93DF937C01CB01F8
:100580008A012091F101222389F0EB016B01C40E55
:10059000D51ECC15DD0569F06991D701ED91FC916F
:1005A0000190F081E02DC7010995F3CF642F0E94DF
:1005B000DD01C801DF91CF911F910F91FF90EF9066
:1005C000DF90CF900895CF93DF931F92CDB7DEB722
:1005D00069832091F1012223D1F02091F40120328E
:1005E00040F021E030E0FC013383228380E090E0A2
:1005F00015C08091F201E82FF0E0E45EFD4F998193
:1006000090838F5F8093F2018093F40105C061E0D5
:10061000CE0101960E94DD0181E090E00F90DF9114
:10062000CF910895CF93C62F9091E40121E02093BC
:10063000F1019093F3011092F2011092F401682FEE
:1006400085EE91E00E94E3026C2F85EE91E00E941E
:10065000E302CF910C94F500789484B5826084BD58
:1006600084B5816084BD85B5826085BD85B58160B6
:1006700085BDEEE6F0E0808181608083E1E8F0E016
:100680001082808182608083808181608083E0E845
:10069000F0E0808181608083E1EBF0E08081846024
:1006A0008083E0EBF0E0808181608083EAE7F0E026
:1006B000808184608083808182608083808181608A
:1006C00080838081806880831092C10008953FB745
:1006D000F8948091150190911601A0911701B091A5
:1006E000180126B5A89B05C02F3F19F00196A11D42
:1006F000B11D3FBFBA2FA92F982F8827820F911DB8
:10070000A11DB11DBC01CD0142E0660F771F881FFE
:10071000991F4A95D1F70895CF92DF92EF92FF92F9
:10072000CF93DF936B017C010E946703EB01C1143F
:10073000D104E104F10479F00E9467036C1B7D0B86
:10074000683E7340A0F381E0C81AD108E108F108BF
:10075000C851DC4FECCFDF91CF91FF90EF90DF904D
:10076000CF9008951F920F920FB60F9211242F93DE
:100770003F934F935F936F937F938F939F93AF9329
:10078000BF93EF93FF938091B900887F803609F47F
:100790009CC068F5883209F45BC090F4803109F49C
:1007A00054C038F4882309F4EFC0883009F44DC0F0
:1007B000EFC0883109F44CC0803209F45DC0E8C054
:1007C000803409F468C048F4803309F455C0883394
:1007D00009F0DEC080931902D1C0803509F44FC002
:1007E000883509F45DC0883409F0D2C0CFC088399B
:1007F00009F4C0C0A8F4883709F467C038F4883613
:1008000009F463C0803709F460C0C2C0883809F4B5
:10081000B1C0803909F45FC0803809F0B9C05BC04D
:10082000803B09F481C038F4803A09F466C0883A04
:1008300009F47AC0ADC0803C09F4A0C0883C09F43A
:100840009DC0883B09F483C0A3C08091F60110C00D
:100850009091180280911702981770F5E091180294
:1008600081E08E0F80931802F0E0E950FE4F808106
:100870008093BB0085EC7FC08093190287C0E09114
:10088000180281E08E0F809318028091BB00F0E087
:10089000E950FE4F8083909118028091170267C043
:1008A000E091180281E08E0F809318028091BB00C6
:1008B000F0E0E950FE4F808380911A02811166C0FA
:1008C00081E08093F50184EA5AC083E080931B02A3
:1008D00010925F01CFCF80915F01803208F04AC053
:1008E000E0915F0181E08E0F80935F018091BB00FA
:1008F000F0E0E15CFE4F8083BDCF80915F018032EC
:1009000030F4E0915F01F0E0E15CFE4F10820E9464
:10091000D30160915F0170E08FE391E0E0E0F0E0EF
:10092000099510925F012AC084E080931B02109207
:100930003E0110923D01E0E0F0E0099580913D011B
:10094000811105C081E080933D0110921D01E0916D
:100950003E0181E08E0F80933E01F0E0E35EFE4FAA
:1009600080818093BB0090913E0180913D0198175A
:1009700008F480CF85E88093BC000AC085EC8093A2
:10098000BC0010921B0204C0109219020E94D301F5
:10099000FF91EF91BF91AF919F918F917F916F9157
:1009A0005F914F913F912F910F900FBE0F901F902D
:1009B00018951F920F920FB60F9211242F933F9309
:1009C0004F935F936F937F938F939F93AF93BF9357
:1009D000EF93FF9380911A0187FF05C01092850065
:1009E000109284001BC020911A01022E000C330BC0
:1009F0008091190190E02817390784F480911A0139
:100A0000082E000C990BFC01EE0FFF1F8E0F9F1F8D
:100A1000FC01E05AFE4F808186FD15C080911A01CD
:100A20008F5F80931A0120911A01022E000C330B64
:100A30008091190190E028173907C4F480911A01B8
:100A40008C3064F113C080911A01082E000C990BB0
:100A5000FC01EE0FFF1F8E0F9F1FFC01E05AFE4F9F
:100A6000808160E08F730E941F02D8CF8091840044
:100A700090918500049680349C4918F480E49CE9A8
:100A800005C0809184009091850004969093890020
:100A9000809388008FEF80931A013BC020918400DF
:100AA0003091850080911A01082E000C990BFC01F1
:100AB000EE0FFF1F8E0F9F1FFC01E05AFE4F81813A
:100AC0009281820F931F9093890080938800809178
:100AD0001A01082E000C990BFC01EE0FFF1F8E0F60
:100AE0009F1FFC01E05AFE4F808186FF12C080915B
:100AF0001A01082E000C990BFC01EE0FFF1F8E0F40
:100B00009F1FFC01E05AFE4F808161E08F730E94BD
:100B10001F02FF91EF91BF91AF919F918F917F91B4
:100B20006F915F914F913F912F910F900FBE0F905A
:100B30001F9018951F920F920FB60F9211242F93AA
:100B40003F938F939F93AF93BF93809111019091A7
:100B50001201A0911301B09114013091100123E012
:100B6000230F2D3720F40196A11DB11D05C026E8E5
:100B7000230F0296A11DB11D209310018093110136
:100B800090931201A0931301B09314018091150169
:100B900090911601A0911701B09118010196A11D25
:100BA000B11D8093150190931601A0931701B09386
:100BB0001801BF91AF919F918F913F912F910F900D
:100BC0000FBE0F901F901895E5EEF1E01382128290
:100BD00088EE93E0A0E0B0E084839583A683B7839A
:100BE00084E091E0918380830895E7EAF1E0118643
:100BF00010861286178216821582369681E0EF3BA8
:100C0000F807A9F71092D0011092D3011092CF01EA
:100C10001092CE011092E0011092E3011092DF01D8
:100C20001092DE0181E68093A9018093E401809116
:100C300019018C30A0F491E0980F909319018093E2
:100C4000840190E0FC01EE0FFF1F8E0F9F1FFC013F
:100C5000E05AFE4F88EB9BE09283818308958FEFEB
:100C60008093840108950E94E4050C94F5050E9488
:100C70002C0385EE91E09093A8018093A701109238
:100C80001C011092F2011092F4010E946C020E9469
:100C90006C0260E080E00E94120380E496E0909392
:100CA000AB018093AA018091E40191E09093F1015E
:100CB0008093F3011092F2011092F40160E085EE4E
:100CC00091E00E94E3020E94F50061E08091E4015E
:100CD0000E940D0180931B0185EE91E00E949A0213
:100CE000C82F682F6F76606180E00E94120363E076
:100CF0008EEF0E9412036C2F80E00E94120365E0C9
:100D000070E080E090E00E948C036C2F616A80E0CC
:100D10000E941203C6E0D1E08091E401D093F1017A
:100D20008093F3011092F2011092F401E091E50139
:100D3000F091E6010190F081E02D6C2F85EE91E0BD
:100D400009950E9402010E9402010E9402010E9474
:100D500002010E94F500CC5FC634F1F68091840157
:100D60008C3008F052C089E00E9487008091840195
:100D7000E82FF0E09F01220F331FE20FF31FE05A2C
:100D8000FE4F9081907C996090839EE890938501BE
:100D900094E6909386016CE00E948C079CE0899F0A
:100DA000B001112440E050E09B01240F351FF901F0
:100DB000EE0FFF1F2E0F3F1FF901E05AFE4F9081EB
:100DC00096FD16C04F5F5F4F4C30510569F781119A
:100DD0000FC01092800082E0809381001092850005
:100DE00010928400B19A80916F00826080936F00AE
:100DF000E0918401F0E0CF01880F991FE80FF91FFF
:100E0000E05AFE4F80818064808368E873E180E06F
:100E100090E00E948C03C0E0D0E080E090E00E946F
:100E20004F0164EF71E080E090E00E948C0384EB5E
:100E300090E00E944F0164EF71E080E090E00E943A
:100E40008C03209751F30E940000E7CFF8940C9494
:100E50009E07052E97FB1EF400940E94400757FD45
:100E600007D00E945B0707FC03D04EF40C944007A8
:100E700050954095309521953F4F4F4F5F4F0895C6
:100E800090958095709561957F4F8F4F9F4F0895F6
:100E90000E947D07A59F900DB49F900DA49F800D8B
:100EA000911D11240895B7FF0C9448070E9448072C
:100EB000821B930B0895A1E21A2EAA1BBB1BFD01F6
:100EC0000DC0AA1FBB1FEE1FFF1FA217B307E40729
:100ED000F50720F0A21BB30BE40BF50B661F771F81
:100EE000881F991F1A9469F7609570958095909561
:100EF0009B01AC01BD01CF010895A29FB001B39F3A
:100F0000C001A39F700D811D1124911DB29F700D12
:100F1000811D1124911D0895991B79E004C0991F2A
:100F2000961708F0961B881F7A95C9F78095089543
:100F3000EE0FFF1F0590F491E02D0994F894FFCF78
:100F400000000000E302B602AE029A028B028A029F
:00000001FF
